:020000040800F2
:1000000098480020F9020008791C0008EB19000844
:10001000611C0008530500080922000800000000C8
:10002000000000000000000000000000390200088D
:100030001D0600080000000095020008A11C000831
:100040001303000813030008130300081303000838
:100050001303000813030008130300081303000828
:100060001303000813030008130300081303000818
:100070001303000813030008130300081303000808
:1000800055050008130300081303000800000000D2
:100090000000000000000000000000001303000842
:1000A000130300086D1D0008130300081303000864
:1000B00013030008130300081303000813030008C8
:1000C00013030008130300081303000813030008B8
:1000D00013030008E5210008F121000800000000DA
:1000E00013030008130300081303000800000000B6
:1000F00000000000000000000000000013030008E2
:100100000000000013030008130300081303000895
:1001100000000000000000000000000000000000DF
:1001200013030008610500086D05000813030008AB
:1001300013030008000000000000000000000000A1
:100140000000000000000000000000001303000891
:10015000130300081303000813030008FD2100081F
:100160001303000813030008000000000000000053
:10017000000000000000000000000000000000007F
:100180000000000013030008000000000000000051
:10019000130300081303000800F002F800F03CF815
:1001A0000AA090E8000C82448344AAF10107DA45D2
:1001B00001D100F031F8AFF2090EBAE80F0013F0E8
:1001C000010F18BFFB1A43F001031847F42B00007E
:1001D000142C0000103A24BF78C878C1FAD852070E
:1001E00024BF30C830C144BF04680C6070470000B1
:1001F0000023002400250026103A28BF78C1FBD830
:10020000520728BF30C148BF0B6070471FB502F0CE
:1002100079FD1FBD10B510BD00F061F91146FFF763
:10022000F5FF02F002F800F07FF903B4FFF7F2FFE8
:1002300003BC00F087F900002C4B19680868B0E88F
:10024000F04F80F30988BFF36F8F4FF0000080F309
:10025000118870470000000008480068006880F3BB
:1002600008884FF0000080F3148862B661B6BFF3CF
:100270004F8FBFF36F8F00DF00BF00BF08ED00E0BE
:10028000DFF80C00016841F470010160704700BFA5
:1002900088ED00E0EFF30980BFF36F8F134B1A680E
:1002A0001EF0100F08BF20ED108A20E9F04F1060FB
:1002B00009B44FF0500080F31188BFF34F8FBFF3A4
:1002C0006F8F02F057FB4FF0000080F3118809BCDC
:1002D00019680868B0E8F04F1EF0100F08BFB0ECC6
:1002E000108A80F30988BFF36F8F704720000020C9
:1002F000EFF3058070470000094880470948004730
:10030000FEE7FEE7FEE7FEE7FEE7FEE7FEE7FEE7C5
:10031000FEE7FEE704480549054A064B7047000022
:100320005D1D0008990100089842002098480020AF
:10033000984400209844002053EA020C00F06980A1
:100340002DE9F04B4FF00006002B1FBFB3FA83F5E9
:1003500003FA05F424FA05F65E4012BF1643B2FA1A
:1003600082F502FA05F4C5F120051EBF22FA05FC4C
:1003700044EA0C04203556EA044C4FEA144418BFF2
:10038000641C4FF000084FF00009904271EB030C21
:1003900039D3002919BFB1FA81F701FA07F6B0FA8B
:1003A00080F700FA07F6C7F120071EBF20FA07FC06
:1003B00046EA0C062037B6FBF4FCA7EB0507103F16
:1003C00007F01F0BCBF120060CFA0BFB2CFA06F6FC
:1003D00044BFB3460026202FA4BF5E464FF0000B5B
:1003E0005BEA060C08BF4FF0010B19EB0B09ABFBE6
:1003F000027C48EB0608C01B06FB02CC0BFB03CCBF
:1004000071EB0C01C1E70B46024641464846BDE888
:10041000F08B13B54FF000004FF00001AFF30080F8
:10042000BDE81C40704710B5203AC0F00B80B1E821
:100430001850203AA0E81850B1E81850A0E8185019
:10044000BFF4F5AF5FEA027C24BFB1E81850A0E822
:10045000185044BF18C918C0BDE810405FEA827C3C
:1004600024BF51F8043B40F8043B08BF7047D20753
:1004700028BF31F8023B48BF11F8012B28BF20F8F4
:10048000023B48BF00F8012B70474FF0000200B557
:10049000134694469646203922BFA0E80C50A0E8A7
:1004A0000C50B1F12001BFF4F7AF090728BFA0E855
:1004B0000C5048BF0CC05DF804EB890028BF40F821
:1004C000042B08BF704748BF20F8022B11F0804F63
:1004D00018BF00F8012B704770477047704775468A
:1004E00000F02CF8AE4605006946534620F00700A0
:1004F000854618B020B5FFF70DFFBDE820404FF04E
:1005000000064FF000074FF000084FF0000B21F0FD
:100510000701AC46ACE8C009ACE8C009ACE8C009CA
:10052000ACE8C0098D46704710B50446AFF30080B3
:100530002046BDE81040FFF778BE00000048704735
:100540003842002001491820ABBEFEE72600020019
:100550007047FEE7014800F0BFB800001404002017
:10056000014800F0B9B8000074040020014800F010
:10057000B3B80000B403002001681823CAB2103ACF
:10058000B2FBF3F2054B6FF30901032A9B5CC365D1
:1005900000D9091D8165084670470000802D0008BC
:1005A00010B5014600208B698A6A4FF0C07453B1C0
:1005B000B3F5005F15D072B1012A0CD0022A0AD01F
:1005C000032A09D104E01AB1012A06D0022A03D174
:1005D000C96AC90100D5012010BDC96AA142FAD07B
:1005E00010BD002AF7D0012AF2D0022AF3D0032A44
:1005F000F3D010BD30B50468256825F4802525604A
:10060000046863608368402B036803D099600068C6
:10061000C26030BD9A600068C16030BD704772B67C
:10062000FEE72DE9F0410446876D00F0BDFA06466D
:1006300094F835000025022806D08020606584F8F3
:1006400034500120BDE8F0812068016821F01601D6
:1006500001602068416921F080014161206C08B986
:10066000A06C20B12068016821F0080101602068B9
:10067000016821F0010101600CE000F095FA801B97
:10068000052807D920206065032084F8350084F808
:100690003450D7E720680068C007EED194F85C10AA
:1006A0003F208840B860012084F8350084F8345039
:1006B0000020C7E790F83510022903D0802141655A
:1006C00001207047052180F835100068016821F08D
:1006D00001010160002070472DE9F84304464FF006
:1006E0000009CDF8009063484FF41651A56D0068DD
:1006F000B0FBF1F72E6894F85C10082000FA01F1C5
:1007000031420FD021680A6852070BD50A6822F0DF
:1007100004020A6094F85C108840A860606D40F0A4
:100720000100606594F85C104FF0010808FA01F0D0
:10073000304208D021684969090604D5A860606D77
:1007400040F00200606594F85C100420884030425C
:1007500008D021680968890704D5A860606D40F059
:100760000400606594F85C1010208840304218D076
:1007700021680968090714D5A86020680168490341
:1007800004D50068000308D5A16C07E00168C9051D
:1007900003D4016821F008010160216C09B12046F1
:1007A000884794F85C1020208840304231D021687E
:1007B0000968C9062DD5A86094F835000528206879
:1007C000016806D0490347D5006800031DD4616C59
:1007D0001CE021F0160101602068416921F08001D0
:1007E0004161206C08B9A06C20B12068016821F03B
:1007F0000801016094F85C103F208840A86084F8EC
:10080000358084F83490216D1FE0E16B09B12046FA
:100810008847606D00282BD0606DC00714D005207C
:1008200084F835002068016821F00101016000981A
:10083000401C0090B84203D820680068C007F6D179
:1008400084F8358084F83490E16C002910D001B030
:100850002046BDE8F04308470168C905D5D40168C2
:1008600021F01001016084F8358084F83490CCE7E1
:10087000BDE8F8831C0000202DE9F041044600F09B
:1008800093F906465CB1022084F83500002584F80F
:1008900034502068016821F0010101600DE0012061
:1008A000BDE8F08100F080F9801B052805D92020E3
:1008B0006065032084F83500F2E720680068C0070F
:1008C000F0D12268116820480140D4E9010318439F
:1008D000D4E903363343184363691843A3691843C3
:1008E000E3691843236A18430843616A042903D162
:1008F000D4E90B1319430843106020684069666A05
:1009000020F0070130460E43012704280CD1A06ACD
:100910000643E06A40B12046FFF742FE20B1402086
:10092000606584F83570BAE7206846612046FFF7B5
:1009300023FE94F85C203F2191408160656584F836
:1009400035700020ACE700003F8010F02DE9F04149
:100950000446866D90F83400002501280DD0012052
:1009600084F8340094F835700020012F07D084F803
:10097000340002252846BDE8F0810220FBE702276B
:1009800084F8357060652046FFF734FE94F85C10FB
:100990003F208840B0602068016841F01601016086
:1009A000206C20B12068016841F0080101602068D6
:1009B000016841F001010160DCE700002DE9F84F1A
:1009C000DFF8B8A10022012403254FF00F090AF136
:1009D000040BAAF1040E00BF0B6804FA02F63340C0
:1009E000B34273D10F7907F00307012F01D0022F13
:1009F00016D187684FEA420805FA08FC27EA0C0777
:100A0000D1F80CC00CFA08FC4CEA070CC0F808C07E
:100A10004768B7430E79C6F3001696403E434660DA
:100A20000E79F643B6070DD0C768560005FA06FCE6
:100A300027EA0C07D1F808C00CFA06FC4CEA070CB0
:100A4000C0F80CC00E7906F00306022E10D1D608AD
:100A500000EB8608D8F8206057074FEAD76C09FAF0
:100A60000CF7BE430F6907FA0CF73743C8F820703C
:100A700006684FEA420C05FA0CF7BE430F7907F0FF
:100A8000030707FA0CF7374307604E6816F4403F38
:100A90006DD03B4E376847F480473760366822F0A8
:100AA000030706F480460096364E07EB060CDCF88A
:100AB000086897073F0F09FA07F826EA0806DFF8E3
:100AC000C880404503D14FF000081EE04FE0DFF83A
:100AD000BC80404502D14FF0010816E0DFF8B0803D
:100AE000404502D14FF002080FE0DFF8A8804045F2
:100AF00002D14FF0030808E0DFF89C80404502D1A6
:100B00004FF0040801E04FF0070808FA07F848EA38
:100B10000608CCF80888DAF800605746D1F804C017
:100B20009E435FEACC2C00D51E433E60DBF800609C
:100B30005F46D1F804C09E435FEA8C2C00D51E436B
:100B40003E60DEF800607746D1F804C09E435FEA5D
:100B50008C3C00D51E433E60084F083F3E68D1F8EC
:100B600004C09E435FEACC3C00D51E433E60521C4D
:100B7000102AFFF431AFBDE8F88F0000083C0140B7
:100B800044380240003001400000024000040240AE
:100B900000080240000C0240001002400AB18161CE
:100BA00070470904FBE700000148806870470000B7
:100BB000100000200248816802781144816070476B
:100BC000100000200B4810B5016841F4007101606D
:100BD000016841F480610160016841F48071016045
:100BE000032000F099F80F2000F006F800F04AF812
:100BF000002010BD003C024030B505461C4887B0BF
:100C00000024016841F001010160006806A900F0BC
:100C10000100009001A800F02BF900F059F91549E6
:100C2000154AB0FBF1F11548491E026040F2E73267
:100C3000C0E90324C0E90114846100F043FB04000F
:100C400012D10E4800F06CFB04000DD1192000F009
:100C500035F8102D07D200222946192000F03CF863
:100C60000748056000E0012407B0204630BD0000C1
:100C70004438024040420F0000000140D4040020EC
:100C8000140000200C4882B0016841F480410160EA
:100C9000006800F4804000900748001F016841F0A0
:100CA000805101600068002200F0805000900F2108
:100CB000901E02B000F010B844380240002809DB52
:100CC00000F01F02012191404009800000F1E02066
:100CD000C0F8001170470000F0B40E4B1B680C46C2
:100CE000C3F30223C3F10705042D00D90425191D00
:100CF000072901D2002300E0DB1E012606FA05F1D8
:100D0000491E214099409E40761E16403143F0BC5A
:100D100001F07BBA0CED00E0064900F0070208681C
:100D20004FF6FF03184040EA0220034A10430860D0
:100D3000704700000CED00E00000FA052DE9F047D7
:100D40000E46050065D0DFF81481D8F80000F7B230
:100D500000F00700B04207D288F80070D8F8000011
:100D600000F00700B04254D128683D4C810712D5ED
:100D7000400703D5206840F4E05020602878000741
:100D800003D5206840F4604020602068A96820F006
:100D9000F000084320602878C0072DD030496868EB
:100DA0000839012812D0022813D0032811D009686D
:100DB000890700292DDA216821F003010143216010
:100DC000FFF7F2FE814641F2883A0EE00968890396
:100DD000EFE709688901ECE7FFF7E6FEA0EB090100
:100DE000514502D90320BDE8F0872068696800F00A
:100DF0000C00B0EB810FEFD1D8F80010404601F0A5
:100E00000701B14207D90770006800F00700B0423F
:100E100001D00120E7E72878400705D52068E96878
:100E200020F4E050084320602878000706D52068A9
:100E3000296920F4604040EAC100206000F058F8C1
:100E40002168084AC1F30311515CC8400649086093
:100E500006480068FFF7D0FE0020C4E7003C0240CF
:100E600008380240882D00081C00002014000020D3
:100E70000F2202600C4A136803F0030343601368F7
:100E800003F0F0038360136803F4E053C360126857
:100E90004FF4E05303EAD20202610448006800F014
:100EA000070008607047000008380240003C02401C
:100EB0000448054900680968044AC1F38221515C6D
:100EC000C84070471C00002008380240982D0008D8
:100ED0000448054900680968044AC1F34231515C7D
:100EE000C84070471C00002008380240982D0008B8
:100EF000154810B5006810F00C02144813D01449BE
:100F0000042A0FD0082A0ED10F4C241F2268236810
:100F100002F03F025B0207D52068C0F38810A0FBF7
:100F2000010106E0084610BD2168C1F38811A1FB4C
:100F300000010023FFF700FA2168C1F30141491CB9
:100F40004900B0FBF1F010BD083802400024F40065
:100F500040787D012DE9F84F04006ED02078DFF84D
:100F60004C93C007A9F104054AD009F104000168B7
:100F7000C1F38101012908D00068C0F38100022873
:100F80000AD1D9F80000400206D52868800337D579
:100F900060680028E1D033E06068B0F5803F10D091
:100FA000B0F5A02F286810D020F480302860286881
:100FB00020F4802028606068A8B1FFF7F5FD0646A0
:100FC0000DE0286840F48030F4E740F48020286089
:100FD000F7E700BFFFF7E8FD801B642873D8286897
:100FE0008003F7D50CE0FFF7DFFD064605E000BF04
:100FF000FFF7DAFD801B6428F0D828688003F7D457
:101000002078DFF8AC8280074FF0000A3ED5A74871
:10101000001D016811F00C0F08D00068C0F38100BA
:1010200002280BD1D9F80000400207D428688007B5
:1010300016D5E068012800D112E033E1E068B8B1CC
:101040000120C8F80000FFF7AFFD064605E000BF2D
:10105000FFF7AAFD801B0228C0D828688007F7D5B3
:101060002868216920F0F80040EAC10028600DE0FE
:10107000C8F800A0FFF798FD064604E0FFF794FDCE
:10108000801B02281FD828688007F7D42078000723
:1010900022D5864F87486169703771B1012101609F
:1010A000FFF782FD064604E0FFF77EFD801B022865
:1010B00009D838688007F7D50EE0C0F800A0FFF720
:1010C00073FD064605E082E0FFF76EFD801B0228F7
:1010D0007DD838688007F7D42078400768D5DFF8D6
:1010E000CCB100270BF13C0BDBF80000C0000BD4A7
:1010F000DBF8001041F08051CBF80010DBF8000065
:10110000012700F0805000906B4E3068C00510D46D
:10111000306840F480703060FFF746FD009005E0D5
:10112000FFF742FD0099401A022850D83068C005E8
:10113000F6D55E4EA0686C3601280FD005283068C1
:1011400010D020F001003060306820F004003060E2
:10115000A068B8B1FFF728FD00900FE0306840F0BC
:101160000100F4E740F004003060F7E7FFF71CFDF2
:101170000099411A41F28830814266D83068800770
:10118000F4D50EE0FFF710FD009007E0FFF70CFD2F
:101190000099411A41F28830814256D83068800760
:1011A000F4D42FB1DBF8001021F08051CBF80010FF
:1011B000A069C8B33D49091D0968C1F3810102292D
:1011C0004AD00228504607D0C8F8600000E03CE052
:1011D000FFF7EAFC04463BE04746C8F86000FFF72B
:1011E000E3FC064605E000BFFFF7DEFC801B02289B
:1011F0002BD828688001F7D4D4E907010843A16AF5
:101200002E4A490802EB0141626A41EA8211084311
:1012100094F82C1040EA0161C9F8001001203866EA
:10122000FFF7C2FC044606E03EE000BFFFF7BCFC4F
:10123000001B022809D828688001F7D534E000BFD8
:10124000FFF7B2FC001B022802D90320BDE8F88F8B
:1012500028688001F4D427E00128F7D0D9F80000ED
:10126000E26900F4800191421CD1226A00F03F0142
:10127000914217D147F6C071626A0140B1EB821FFB
:1012800010D1A26A4FF0FF3300F4403103EB520259
:10129000B1EB024F06D194F82C1000F07060B0EB67
:1012A000016F01D00120D1E70020CFE704380240D0
:1012B00000004742800E4742007000400000FFFFE0
:1012C0007047704710B5040003D094F83D0010B18A
:1012D00007E0012010BD002084F83C00204600F00B
:1012E0001EF8022084F83D00211D206800F044FD16
:1012F000012084F8460084F83E0084F83F0084F81A
:10130000400084F8410084F8420084F8430084F8E7
:10131000440084F8450084F83D00002010BD70476B
:1013200090F83D10012901D001207047022180F87A
:101330003D100168CA6842F00102CA6000680E49A7
:1013400088420ED0B0F1804F0BD00C49884208D0B3
:101350000B49884205D00B49884202D00A4988428D
:1013600004D1816801F00701062903D0016841F02A
:1013700001010160002070470000014000040040AE
:1013800000080040000C00400040014070472DE97B
:10139000F04104460068C66805694FF00007A907D8
:1013A00013D5B10711D5F91E0161012020772068FE
:1013B00080698007204602D0FFF7E8FF04E000F0D4
:1013C0007EF8204600F07CF82777680716D570076E
:1013D00014D521686FF0040008610220207720688E
:1013E000806910F4407F204602D0FFF7CFFF04E071
:1013F00000F065F8204600F063F82777280715D538
:10140000300713D521686FF00800086104202077A9
:101410002068C0698007204602D0FFF7B7FF04E0CC
:1014200000F04DF8204600F04BF82777E80616D577
:10143000F00614D521686FF01000086108202077AD
:101440002068C06910F4407F204602D0FFF79EFF5D
:1014500004E000F034F8204600F032F82777E8077F
:1014600008D0F00706D021686FF00100086120461F
:1014700000F028F8280608D5300606D521686FF058
:10148000800008612046FFF71BFF680608D570063C
:1014900006D521686FF040000861204600F01CF876
:1014A000A8060AD5B00608D521686FF020000861AB
:1014B0002046BDE8F041FFF704BFBDE8F08170476A
:1014C0007047000000680349884201D1FFF772BBF2
:1014D0007047000000000140704738B5044690F89E
:1014E0004200202801D0022038BD61B15AB101204C
:1014F000206300206063204600F02CFE0028F3D11A
:10150000216B012901D0012038BD21680A68496892
:10151000009121680C3151E8002F42F0100241E89F
:101520000023002BF5D138BD084910B588420CD1F5
:101530000749A1F11E0000F059FA05491922BDE83A
:1015400010401E390148FFF7C8BF10BD240300201A
:101550002A42002070470000F8B501680446086878
:10156000CA684B6910F00F0F4FF0000559D003F017
:10157000010602F49077374365D0C10705D0D10545
:1015800003D5616C41F001016164410705D5D907BC
:1015900003D0616C41F002016164810705D5D90770
:1015A00003D0616C41F004016164010707D502F0CA
:1015B0002001314303D0616C41F008016164616C2A
:1015C00000293AD0800604D5900602D5204600F0C6
:1015D000D9FC20684069616CC0F38010090700D411
:1015E00060B3204600F099FC20684069400621D590
:1015F0002068143050E8001F21F0400140E800123C
:10160000002AF5D1E06BA8B16E490165E06BFFF7E8
:1016100051F8002811D0E06B016D01B0BDE8F04039
:10162000084783060FD593060DD52046BDE8F84040
:1016300000F0A8BC2046FFF78DFFF8BD2046FFF75D
:1016400089FF6564F8BD266B2023012E7DD1C60677
:101650007BD5D60679D508684868009048694FF070
:101660000206400641D5E16B086840680004000CA2
:10167000E8D0A28D8242E5D9E085C869B0F5807FC7
:101680002DD020680C3050E8001F21F4807140E814
:101690000012002AF5D12068143050E8001F21F014
:1016A000010140E80012002AF5D12068143050E80A
:1016B000001F21F0400140E80012002AF5D184F813
:1016C0004230256320680C3050E8001F21F01001E3
:1016D00040E80012002AF5D1E06BFEF7A2FF666336
:1016E000A08DE18D401A81B22AE0A08DE18D401AD3
:1016F00081B2E08D0028A5D00029A3D022680C3249
:1017000052E8000F20F4907042E80007002FF5D156
:101710002068143050E8002F22F0010240E8002732
:10172000002FF5D184F84230256320680C3050E852
:10173000002F22F0100240E80023002BF5D1666351
:101740002046FFF7F1FEF8BDFFE705062BD515068D
:1017500029D594F841002128F5D1A068B0F5805F23
:1017600001D12069B0B1206A411C21622168007852
:101770004860E08C401E0004000CE084E3D1206847
:10178000C16821F08001C1602068C16841F040015A
:10179000C160D8E7206A0088C0F308004860206A6A
:1017A000801C2062E5E74006CDD55006CBD5CA683F
:1017B000204622F04002CA6084F8413000F014F95B
:1017C000C1E700001D1E000870B5040004D094F8A5
:1017D0004100002510B106E0012070BD84F84050A2
:1017E000204600F023F8242084F841002068C168D6
:1017F00021F40051C160204600F026FC20680169F8
:1018000021F4904101612068416921F02A01416180
:101810002068C16841F40051C1606564202084F8EB
:10182000410084F842006563002070BD2DE9F04757
:1018300086B0064614216846FEF727FE6248DFF8A8
:1018400084811438D6F800C000245F4902220325A1
:101850005E4B07154FF007094FF0006AC44533D1BE
:10186000D1F800C04CF0100CC1F800C0096801F0BC
:1018700010010591016841F00101016000686946AD
:1018800000F00100059068028DE835021846FFF768
:1018900095F8504D4E482860C5E901A4C5E90347B5
:1018A0006C61AC61EC612C6228466C62FEF7E4FF6F
:1018B00008B1FEF7B4FEF563002205212520AE63D2
:1018C000FFF70AFA252039E0DFF80C81C4453AD148
:1018D0003D49091FD1F800C04CF4003CC1F800C0DC
:1018E000096801F400310591016841F001010160CE
:1018F0000068694600F0010005900C208DE8350273
:101900001846FFF75BF8334D344860352860C5E969
:1019100001A4C5E903476C61AC61EC612C62284607
:101920006C62FEF7A9FF08B1FEF779FEF5630022AD
:1019300005212620AE63FFF7CFF92620FFF7BEF979
:1019400006B0BDE8F087DFF89880C445F8D1D1F83B
:1019500000C04CF0200CC1F800C0096801F0200163
:101960000591016841F0010101600068694600F0DD
:10197000010005904FF4C0508DE835000820049018
:101980001846FFF71BF8134D1148C035183828606A
:101990008005C5E90104C5E903476C61AC61EC61F0
:1019A0002C6228466C62FEF767FF08B1FEF737FE2F
:1019B000F563002205214720AE63FFF78DF947202C
:1019C000BCE7000000100140443802400000024023
:1019D00040640240B403002000440040886002409C
:1019E00000140140704770477047FEE702780F2AE5
:1019F00001D000207047B0F80120C2F30A020A802B
:101A00008278C378D20842EA4312C2F30A024A80BB
:101A1000C2780379920942EA8302437942EA832237
:101A2000C2F30A028A8042798379520842EAC312D9
:101A3000C2F30A02CA808279C2F301120A81807954
:101A40008009488101207047154808B5016841F4B4
:101A500000110160016801F400110091016841F476
:101A6000800101600068002200F4800000900521E0
:101A70001020FFF731F91020FFF720F9002205218F
:101A80003920FFF729F93920FFF718F9002205213D
:101A90003A20FFF721F9BDE808403A20FFF70EB9D8
:101AA0003038024010B59CB01C2216496846FEF73B
:101AB000BAFC0021684600F0DDFB134C11491C22E2
:101AC000E0601C3107A8FEF7AEFC002107A800F07B
:101AD000D1FB0C4920601C2238310EA8FEF7A3FC74
:101AE00000210EA800F0C6FB064960601C2254319C
:101AF00015A8FEF798FC002115A800F0BBFBA0601C
:101B00001CB010BD102D000800000020F0B587B0FB
:101B100014216846FEF7B9FC21480024016841F011
:101B200004010160016801F004010591016841F0C0
:101B300080010160016801F080010591016841F0B8
:101B400001010160016801F001010591016841F0A6
:101B5000020101600068134E00F002004FF40055CE
:101B60000590002229463046FFF718F80E4F002254
:101B7000C0213846FFF712F800950125CDE9015440
:101B8000694630460394FEF719FFC0200090CDE966
:101B90000154694638460394FEF710FF07B0F0BDC4
:101BA0003038024000080240000402400C4810B5E2
:101BB0000A4901604FF4E1314160002181600C224B
:101BC000C160C0E904128161C161FFF7FDFD002819
:101BD00003D0BDE81040FEF722BD10BD001001404B
:101BE000DC0200200E4810B50C4901600D4941602F
:101BF0004FF48051816000214FF48062C0E90312EC
:101C00000C22C0E90521C161FFF7DEFD002803D0E9
:101C1000BDE81040FEF703BD10BD000000440040C9
:101C200024030020A08601000C4810B50A49016079
:101C30004FF4E1314160002181600C22C160C0E9B4
:101C400004128161C161FFF7BFFD002803D0BDE828
:101C50001040FEF7E4BC10BD001401406C030020EE
:101C6000FEE70000192202490248FFF736BC0000D7
:101C70000C42002024030020FEE7012000F0EEFAD1
:101C8000FBE7012000F0EAFAFBE7FFF7EBFF0A2091
:101C900000F0E4FAFBE7052000F0E0FAFBE70000C3
:101CA00010B5502080F31188BFF34F8FBFF36F8FB3
:101CB00000F060FF18B104494FF080500860002028
:101CC00080F3118810BD000004ED00E030B593B042
:101CD00030216846FEF7D9FB14210CA8FEF7D5FB8E
:101CE0001C480024016841F080510160006800F048
:101CF000805011901848016841F44041016000682B
:101D0000022500F44040119001200390102004901F
:101D1000009506950820CDE907406420CDE9090526
:101D200004200B906846FFF715F908B172B6FEE77C
:101D30000F20CDE90C054FF48050CDE90E40032172
:101D40000CA81094FEF7FAFF002801D072B6FEE747
:101D500013B030BD403802400070004002480168B6
:101D600041F470010160704788ED00E00148FFF721
:101D70000EBB0000D4040020F0B50268204B214CBB
:101D80009F03214D214E984207D0B84205D0A04272
:101D900003D0A84201D0B04204D122F0700C4A68AE
:101DA00042EA0C02984210D0B8420ED0A0420CD0A9
:101DB000A8420AD0B04208D0154CA04205D0154C1C
:101DC000A04202D0144CA04203D122F44074CA684D
:101DD00022434C6922F08002224302608A68C26278
:101DE0000A688262984201D1096901630121416157
:101DF0000169C90703D0016921F001010161F0BD4A
:101E0000000001400004004000080040000C0040B9
:101E100000400140004401400048014010B5806B83
:101E20000021C185C184FFF795FB10BD70B5846B9F
:101E30002068406994F84110C0F3C01000252129A2
:101E400004D118B1E584204600F08EF8206840697E
:101E500094F84210C0F38010222904D118B1E5850E
:101E6000204600F05AF8606C40F010006064204694
:101E7000FFF770FB70BD10B50146806B09680968FB
:101E80004FF00002C9052ED4C28501680C3151E81B
:101E9000003F23F4807341E80034002CF5D1016841
:101EA000143151E8003F23F0010341E80034002CD5
:101EB000F5D10168143151E8003F23F0400341E8B7
:101EC0000034002CF5D1202180F84210016B01294B
:101ED00009D101680C3151E8003F23F0100341E8BB
:101EE0000034002CF5D14263016B012902D0FFF7C9
:101EF00079FD10BD818DFFF717FB10BD10B5806B0C
:101F000001214163016B012902D0FFF76CFD10BD77
:101F1000818D4908FFF708FB10BD01680C3151E8BD
:101F2000002F22F4907241E80023002BF5D10168C4
:101F3000143151E8002F22F0010241E80023002B68
:101F4000F5D1016B012909D101680C3151E8002F4D
:101F500022F0100241E80023002BF5D1202180F867
:101F6000421000210163704701680C3151E8002FD5
:101F700022F0C00241E80023002BF5D1202180F897
:101F80004110704708B590F84210222901D0022074
:101F900008BD82684FF480539A4201D1016921B192
:101FA000816A9A421BD04AB10AE00268816A52688B
:101FB000C2F308020A80816A891C08E0026972B1D2
:101FC0000268526802F07F020A70816A491C8162CD
:101FD000C18D491E0904090CC18503D01BE00268AC
:101FE0005268F1E70168CA6822F02002CA600168FD
:101FF000CA6822F48072CA6001684A6922F001024C
:102000004A61202180F8421000214163026B012ABD
:1020100003D0FFF7E7FC002008BD016301680C3125
:1020200051E8002F22F0100241E80023002BF5D1E7
:1020300001680A68D20602D50A6849680091818D54
:10204000FFF772FAE7E7000070B50446006801691F
:10205000E26821F44051114301612169A068E269FD
:1020600008436169114308432168CA6849F20C6357
:102070009A430243CA6020684169A26921F4407111
:102080001143416131492068884202D03049884279
:1020900002D1FEF71DFF01E0FEF70AFFE26900230F
:1020A000192164253226B2F5004F626828D0A0FBC2
:1020B0000101930F9200FEF73FF90146B0FBF5F0E6
:1020C0006FF01802504301EB800006EB0010B0FBEC
:1020D000F5F000F0F002B1FBF5F002EB0012B1FBFD
:1020E000F5F06FF01803584301EB800006EB001089
:1020F000B0FBF5F000F00F0021681044886070BD5F
:10210000A0FB010192185B41FEF716F90146B0FBF6
:10211000F5F00201B1FBF5F06FF01803584301EB45
:10212000800006EBC000B0FBF5F000F0F80002EB19
:102130004002B1FBF5F0584301EB800006EBC00014
:10214000B0FBF5F000F00700D6E7000000100140FA
:102150000014014038B58162044682850020134690
:102160006064222284F84220E56B1B4AEA63E56B37
:102170001A4A2A64E56B1A4AEA64E26B10650A4659
:102180002168E06B091DFEF7E1FB206801684068EB
:102190000090206948B120680C3050E8001F41F4DD
:1021A000807140E80012002AF5D12068143050E810
:1021B000001F41F0010140E80012002AF5D120681B
:1021C000143050E8001F41F0400140E80012002A9E
:1021D000F5D1002038BD0000771E0008FD1E000864
:1021E0002D1E00080148FFF7B7B90000DC020020EF
:1021F0000148FFF7B1B90000240300200148FFF7B0
:10220000ABB900006C030020FEE70907090E0028A7
:1022100004DB00F1E02080F80014704700F00F00AC
:1022200000F1E02080F8141D7047FEF7CBFCFFF7AB
:102230004DFDFFF76BFCFFF707FCFFF7B7FCFFF75F
:10224000D1FCFFF7F1FCFFF72DFC00F00EF8FEE7E4
:1022500001460020842900D0C81C704710B500B981
:10226000012000F023FB002010BD10B500F044FB5E
:10227000002010BD7FB50D4604464169B0F9080045
:1022800081B1A16971B1FFF7E3FFD4E905128DE8CF
:102290000700D4E900102B46226900F040FC0390AF
:1022A00004B070BDFFF7D4FF03A9CDE90001208A77
:1022B0002B4682B2D4E9001000F004FC012801D0C2
:1022C0000020EDE70398EBE72DE9F041184C0F46AD
:1022D0000546E6682068001D00F020FA38B920683D
:1022E00090F82C1001208840216981432161681CED
:1022F00007D137B12168BDE8F0410E48091D00F053
:1023000051BA20683544B5424560216805D2A06BBA
:10231000BDE8F041091D00F02DBA606B091D00F009
:1023200029FAA06A854200D2A562BDE8F0810000CA
:1023300020000020F80500202DE9F041054600F0BE
:102340003DFA2E4CA068401CA06020682C4F10B1B4
:10235000606940B32DE02560A068012829D10026DE
:1023600006EB860007EB800000F0F6F9761C072EDE
:10237000F6D323488C3000F0EFF92148A03000F06C
:10238000EBF91F48B43000F0E7F91D48C83000F001
:10239000E3F91B48DC3000F0DFF919488C3060634A
:1023A0001430A06305E02068E96AC06A884200D85A
:1023B0002560606A401C6062E96A012022698840E9
:1023C0001043206101EB810007EB8000291D00F024
:1023D000E9F900F013FA606900280CD02068E96A76
:1023E000C06A884207D207494FF080500860BFF3A7
:1023F0004F8FBFF36F8FBDE8F081000020000020F9
:102400001C05002004ED00E010B5044690F85100D2
:1024100058B101280CD002280FD0502080F3118829
:10242000BFF34F8FBFF36F8FFEE7206B00F0FAF919
:102430002046BDE8104000F0F5B910BD10484FF43B
:102440007051420706D0C01D0D4920F00700411A07
:10245000C1F570510B4A00230144C2E90003083959
:10246000183A21F0070111604B600B600B1AC0E9AC
:10247000001393604FF000405360506170470000BC
:102480000C06002074000020144E154CA6F1C8075D
:102490004FF08058DFF84C9012E000BF00F08EF94A
:1024A000F068C568281D00F039F9A068401EA060DA
:1024B0006068401E606000F0A1F92846FFF7A4FFA5
:1024C00060680028EAD138680128F9D9C9F8008085
:1024D000BFF34F8FBFF36F8FF2E70000E4050020DA
:1024E0002000002004ED00E02DE9F0479A46DDE9E8
:1024F000098481466FF00303206B03EB82021044D2
:10250000089E20F00707780707D0502080F3118835
:10251000BFF34F8FBFF36F8FFEE7002561B100203F
:1025200023180A5C83F834200A5C12B1401C10287E
:10253000F6D384F8435001E084F83450072E00D3DA
:102540000626E662C4E91165201D00F010F904F1C9
:10255000180000F00CF92461C6F107006462A06164
:10256000E56484F8505052464946384600F0C0F8B9
:102570002060B8F1000F01D0C8F80040BDE8F08736
:1025800030B5114900E011460A688242FBD34B681E
:102590005C18844203D14068184448600846436888
:1025A0001C18944209D1084C183C2468A24209D056
:1025B00052681A4442600A6812680260814200D080
:1025C000086030BD0460F9E7740000200648416BE4
:1025D000096829B1416BC968C96849688162704757
:1025E0004FF0FF31FAE70000200000200848406863
:1025F000401C4FF0500080F3118804D0BFF34F8F80
:10260000BFF36F8FFEE7BFF34F8FBFF36F8FFEE710
:102610007C0000202DE9F0410546002700F0A2F9DA
:10262000324E306808B9FFF709FF706905424ED194
:10263000C5B3083568070ED005F00700C0F10800E3
:102640000544680707D0502080F31188BFF34F8FEF
:10265000BFF36F8FFEE72DB37068854237D82348EC
:10266000183001460C6801E020460C466168A9421A
:1026700002D221680029F7D131688C4227D007683F
:102680002168016060680837411B10290FD9601963
:10269000420708D0502080F31188BFF34F8FBFF35B
:1026A0006F8FFEE713E041606560FFF769FF6168C7
:1026B0007068401A7060B268904200D2B060706971
:1026C00001430020C4E90001F068401CF06000F004
:1026D000B7FA780707D0502080F31188BFF34F8FE7
:1026E000BFF36F8FFEE73846BDE8F0815C00002045
:1026F00010B5031F4FF080741C601B1F21F00101F7
:102700001960191F044B0B6014390A60091F6FF020
:10271000020244380A6010BDED250008D0E90132FC
:1027200001699A60D0E901235A604A68824201D166
:1027300082684A60002202610868401E08600868DA
:1027400070470000034B036003F1540008608020D1
:10275000106070478800002000F108014FF0FF3240
:10276000C0E90112C16001610021016070470021D0
:102770000161704730B50B685A1C02D000F10802A5
:1027800002E0026904E02246546825689D42FAD9B5
:1027900053684B6099608A60516008610168491C08
:1027A000016030BD42684A6093688B6093685960ED
:1027B000916008610168491C01607047502080F3F6
:1027C0001188BFF34F8FBFF36F8F0A494868401CD1
:1027D000486001280CD10848006810F0FF0F07D0AE
:1027E000502080F31188BFF34F8FBFF36F8FFEE748
:1027F000704700007C00002004ED00E008494868B4
:1028000028B1401E486001D180F3118870475020E4
:1028100080F31188BFF34F8FBFF36F8FFEE7000087
:102820007C00002070B500282AD0164DA0F10804C5
:1028300060686969084207D1502080F31188BFF3AE
:102840004F8FBFF36F8FFEE722683AB1502080F3BD
:102850001188BFF34F8FBFF36F8FFEE7884360602F
:1028600000F080F860686968084468602046FFF7F7
:1028700087FE2869401C2861BDE8704000F0E0B97F
:1028800070BD00005C0000204FF0E02000210161DD
:10289000816105494FF47A720968B1FBF2F1491E72
:1028A00041610721016170471C00002010B5020042
:1028B00014D00F48006B38B1502080F31188BFF35B
:1028C0004F8FBFF36F8FFEE700F04CF800211046EA
:1028D000FFF7FAFC00F0B4F9002807D105494FF0E2
:1028E00080500860BFF34F8FBFF36F8F10BD0000A3
:1028F0002000002004ED00E010B586B00024039411
:1029000005AA04A903A80494FFF71CFFDDE903014D
:102910000094CDE9011000230EA11048059A00F0A3
:10292000FEF80F490028C86211D0502080F31188AA
:10293000BFF34F8FBFF36F8F4FF0FF3088620120DE
:102940004861CC6006B0BDE8104000F041B806B068
:1029500010BD000049444C450000000089240008D7
:10296000200000200248016B491C016370470000F1
:10297000200000201448016B11B10121C161704792
:102980000021C1610169B1FA81F1C1F11F0101EBBF
:1029900081020E4951F822306BB101EB820101F145
:1029A00008034A6852684A609A4201D152684A60F4
:1029B000D16801607047502080F31188BFF34F8FBA
:1029C000BFF36F8FFEE70000200000201C050020F1
:1029D0001CB537480168374A914207D1502080F32F
:1029E0001188BFF34F8FBFF36F8FFEE70068314947
:1029F000491E884207D1502080F31188BFF34F8FC2
:102A0000BFF36F8FFEE72C4908780190FF20087014
:102A100008788DF800009DF800009DF8002000F077
:102A2000F000904207D0502080F31188BFF34F8F01
:102A3000BFF36F8FFEE79DF80000204C00F05000C0
:102A400020700720A06005E09DF8002052008DF85E
:102A50000020401E9DF800201206F5D4A060032837
:102A600007D0502080F31188BFF34F8FBFF36F8FD3
:102A7000FEE74FF44070A060019808700C482030C9
:102A8000016841F470010160016841F0704101602A
:102A9000FFF7FAFE00206060FDF7F2FB08480168CE
:102AA00041F040410160FDF7D7FB00201CBD000054
:102AB00000ED00E071C20F4100E400E07C00002066
:102AC00034EF00E02DE9FF5F8346DDE90E8799468C
:102AD00016468A469000FFF79DFD05001CD0542045
:102AE000FFF798FD040014D00020256384F85100FE
:102AF000CDE90240CDE900874B4632465146584663
:102B0000FFF7F2FC2046FFF717FC012004B0BDE8F8
:102B1000F09F2846FFF786FE4FF0FF30F6E7F0B54E
:102B200085B0DDE90B640A9DA6B1DCB1542700979E
:102B30002663022684F85160002604AFCDE90246E0
:102B4000CDE90057FFF7D0FC2046FFF7F5FB0498CE
:102B500005B0F0BD502080F31188BFF34F8FBFF355
:102B60006F8FFEE7502080F31188BFF34F8FBFF3C4
:102B70006F8FFEE72DE9F0412F4C0026206B28B126
:102B8000A069401CA0613046BDE8F081E5686D1C7D
:102B9000E56013D1606B006838B1502080F3118874
:102BA000BFF34F8FBFF36F8FFEE7606BA16B616365
:102BB000A063206A401C2062FFF708FDA06ADFF8CE
:102BC0007C80854209D3606B0068A0B1606BC068EF
:102BD000C7687868854211D2A0622068C06A00EB9D
:102BE000800158F82100012800D90126E069002859
:102BF000C9D00126C7E74FF0FF30EDE7381DFFF7DA
:102C00008DFDB86A18B107F11800FFF787FDF96A62
:102C10000120226988401043206101EB810108EB0B
:102C20008100391DFFF7BEFDF86A2168C96A884234
:102C3000C9D30126C7E70000200000201C050020A2
:102C40002DE9F0472C4D00242746286B38B1FFF7BB
:102C5000B5FD286B401E2863286B40B146E050202C
:102C600080F31188BFF34F8FBFF36F8FFEE7A96822
:102C7000224E0120D1B3A6F1B40980463068E8B1F4
:102C8000F068C46804F11800FFF748FD201DFFF745
:102C900045FDE06A2A6908FA00F11143296100EB59
:102CA000800109EB8100211DFFF77CFDE06A2968A6
:102CB000C96A8842E2D3C5F81C80DFE70CB1FFF790
:102CC00085FCAC6944B14646FFF754FF00B1EE61A4
:102CD000641EF9D10020A861E86938B108490127CC
:102CE00038070860BFF34F8FBFF36F8FFFF786FD84
:102CF0003846BDE8F087000020000020D005002005
:102D000004ED00E04FF04070E1EE100A7047000063
:102D1000A82D00087B1C0008000000000000000037
:102D2000800000000000000000000000A02D00084E
:102D30008B1C000800000000000000008000000064
:102D40000000000000000000BC2D0008831C0008EB
:102D5000000000000000000000040000000000006F
:102D600000000000B42D0008971C000800000000BF
:102D700000000000800000000000000000000000D3
:102D800000061016000610160000000000000000EB
:102D90000102030406070809000000000102030401
:102DA0004D6573736167650064656661756C745425
:102DB00061736B004D6F746F72000000496E730099
:102DC000E02D00080000002088000000D401000869
:102DD000682E00088800002010480000F00100085C
:102DE00000000000000000000000000000000000E3
:102DF0000100000010000000000000000024F400AA
:102E000000000000000000000000000000000000C2
:102E100000000000000000000000000000000000B2
:102E200000000000000000000000000000000000A2
:102E30000000000000000000000000000000000092
:102E40000000000000000000000000000000000082
:102E50000000000000000000000000000000000072
:082E6000AAAAAAAA00000000C2
:040000050800019955
:00000001FF
